{
  "contractName": "MemoryToken",
  "abi": [
    {
      "inputs": [],
      "stateMutability": "nonpayable",
      "type": "constructor"
    },
    {
      "anonymous": false,
      "inputs": [
        {
          "indexed": true,
          "internalType": "address",
          "name": "owner",
          "type": "address"
        },
        {
          "indexed": true,
          "internalType": "address",
          "name": "approved",
          "type": "address"
        },
        {
          "indexed": true,
          "internalType": "uint256",
          "name": "tokenId",
          "type": "uint256"
        }
      ],
      "name": "Approval",
      "type": "event"
    },
    {
      "anonymous": false,
      "inputs": [
        {
          "indexed": true,
          "internalType": "address",
          "name": "owner",
          "type": "address"
        },
        {
          "indexed": true,
          "internalType": "address",
          "name": "operator",
          "type": "address"
        },
        {
          "indexed": false,
          "internalType": "bool",
          "name": "approved",
          "type": "bool"
        }
      ],
      "name": "ApprovalForAll",
      "type": "event"
    },
    {
      "anonymous": false,
      "inputs": [
        {
          "indexed": true,
          "internalType": "address",
          "name": "from",
          "type": "address"
        },
        {
          "indexed": true,
          "internalType": "address",
          "name": "to",
          "type": "address"
        },
        {
          "indexed": true,
          "internalType": "uint256",
          "name": "tokenId",
          "type": "uint256"
        }
      ],
      "name": "Transfer",
      "type": "event"
    },
    {
      "inputs": [],
      "name": "_tokenIds",
      "outputs": [
        {
          "internalType": "uint256",
          "name": "_value",
          "type": "uint256"
        }
      ],
      "stateMutability": "view",
      "type": "function",
      "constant": true
    },
    {
      "inputs": [
        {
          "internalType": "address",
          "name": "to",
          "type": "address"
        },
        {
          "internalType": "uint256",
          "name": "tokenId",
          "type": "uint256"
        }
      ],
      "name": "approve",
      "outputs": [],
      "stateMutability": "nonpayable",
      "type": "function"
    },
    {
      "inputs": [
        {
          "internalType": "address",
          "name": "owner",
          "type": "address"
        }
      ],
      "name": "balanceOf",
      "outputs": [
        {
          "internalType": "uint256",
          "name": "",
          "type": "uint256"
        }
      ],
      "stateMutability": "view",
      "type": "function",
      "constant": true
    },
    {
      "inputs": [
        {
          "internalType": "uint256",
          "name": "tokenId",
          "type": "uint256"
        }
      ],
      "name": "getApproved",
      "outputs": [
        {
          "internalType": "address",
          "name": "",
          "type": "address"
        }
      ],
      "stateMutability": "view",
      "type": "function",
      "constant": true
    },
    {
      "inputs": [
        {
          "internalType": "address",
          "name": "owner",
          "type": "address"
        },
        {
          "internalType": "address",
          "name": "operator",
          "type": "address"
        }
      ],
      "name": "isApprovedForAll",
      "outputs": [
        {
          "internalType": "bool",
          "name": "",
          "type": "bool"
        }
      ],
      "stateMutability": "view",
      "type": "function",
      "constant": true
    },
    {
      "inputs": [],
      "name": "name",
      "outputs": [
        {
          "internalType": "string",
          "name": "",
          "type": "string"
        }
      ],
      "stateMutability": "view",
      "type": "function",
      "constant": true
    },
    {
      "inputs": [
        {
          "internalType": "uint256",
          "name": "tokenId",
          "type": "uint256"
        }
      ],
      "name": "ownerOf",
      "outputs": [
        {
          "internalType": "address",
          "name": "",
          "type": "address"
        }
      ],
      "stateMutability": "view",
      "type": "function",
      "constant": true
    },
    {
      "inputs": [
        {
          "internalType": "address",
          "name": "from",
          "type": "address"
        },
        {
          "internalType": "address",
          "name": "to",
          "type": "address"
        },
        {
          "internalType": "uint256",
          "name": "tokenId",
          "type": "uint256"
        }
      ],
      "name": "safeTransferFrom",
      "outputs": [],
      "stateMutability": "nonpayable",
      "type": "function"
    },
    {
      "inputs": [
        {
          "internalType": "address",
          "name": "from",
          "type": "address"
        },
        {
          "internalType": "address",
          "name": "to",
          "type": "address"
        },
        {
          "internalType": "uint256",
          "name": "tokenId",
          "type": "uint256"
        },
        {
          "internalType": "bytes",
          "name": "data",
          "type": "bytes"
        }
      ],
      "name": "safeTransferFrom",
      "outputs": [],
      "stateMutability": "nonpayable",
      "type": "function"
    },
    {
      "inputs": [
        {
          "internalType": "address",
          "name": "operator",
          "type": "address"
        },
        {
          "internalType": "bool",
          "name": "approved",
          "type": "bool"
        }
      ],
      "name": "setApprovalForAll",
      "outputs": [],
      "stateMutability": "nonpayable",
      "type": "function"
    },
    {
      "inputs": [
        {
          "internalType": "bytes4",
          "name": "interfaceId",
          "type": "bytes4"
        }
      ],
      "name": "supportsInterface",
      "outputs": [
        {
          "internalType": "bool",
          "name": "",
          "type": "bool"
        }
      ],
      "stateMutability": "view",
      "type": "function",
      "constant": true
    },
    {
      "inputs": [],
      "name": "symbol",
      "outputs": [
        {
          "internalType": "string",
          "name": "",
          "type": "string"
        }
      ],
      "stateMutability": "view",
      "type": "function",
      "constant": true
    },
    {
      "inputs": [
        {
          "internalType": "uint256",
          "name": "tokenId",
          "type": "uint256"
        }
      ],
      "name": "tokenURI",
      "outputs": [
        {
          "internalType": "string",
          "name": "",
          "type": "string"
        }
      ],
      "stateMutability": "view",
      "type": "function",
      "constant": true
    },
    {
      "inputs": [
        {
          "internalType": "address",
          "name": "from",
          "type": "address"
        },
        {
          "internalType": "address",
          "name": "to",
          "type": "address"
        },
        {
          "internalType": "uint256",
          "name": "tokenId",
          "type": "uint256"
        }
      ],
      "name": "transferFrom",
      "outputs": [],
      "stateMutability": "nonpayable",
      "type": "function"
    },
    {
      "inputs": [
        {
          "internalType": "address",
          "name": "player",
          "type": "address"
        },
        {
          "internalType": "string",
          "name": "tokenURI",
          "type": "string"
        }
      ],
      "name": "awardItem",
      "outputs": [
        {
          "internalType": "uint256",
          "name": "",
          "type": "uint256"
        }
      ],
      "stateMutability": "nonpayable",
      "type": "function"
    }
  ],
  "bytecode": "0x60806040523480156200001157600080fd5b506040518060400160405280600c81526020017f4d656d6f727920546f6b656e00000000000000000000000000000000000000008152506040518060400160405280600881526020017f4441434554484552000000000000000000000000000000000000000000000000815250816000908051906020019062000096929190620000b8565b508060019080519060200190620000af929190620000b8565b505050620001cc565b828054620000c69062000197565b90600052602060002090601f016020900481019282620000ea576000855562000136565b82601f106200010557805160ff191683800117855562000136565b8280016001018555821562000136579182015b828111156200013557825182559160200191906001019062000118565b5b50905062000145919062000149565b5090565b5b80821115620001645760008160009055506001016200014a565b5090565b7f4e487b7100000000000000000000000000000000000000000000000000000000600052602260045260246000fd5b60006002820490506001821680620001b057607f821691505b602082108103620001c657620001c562000168565b5b50919050565b6128c280620001dc6000396000f3fe608060405234801561001057600080fd5b50600436106100f55760003560e01c806370a0823111610097578063b88d4fde11610066578063b88d4fde14610284578063c87b56dd146102a0578063cf378343146102d0578063e985e9c514610300576100f5565b806370a08231146101fc57806395d89b411461022c578063a22cb4651461024a578063aa46a40014610266576100f5565b8063095ea7b3116100d3578063095ea7b31461017857806323b872dd1461019457806342842e0e146101b05780636352211e146101cc576100f5565b806301ffc9a7146100fa57806306fdde031461012a578063081812fc14610148575b600080fd5b610114600480360381019061010f9190611894565b610330565b60405161012191906118dc565b60405180910390f35b610132610412565b60405161013f9190611990565b60405180910390f35b610162600480360381019061015d91906119e8565b6104a4565b60405161016f9190611a56565b60405180910390f35b610192600480360381019061018d9190611a9d565b6104ea565b005b6101ae60048036038101906101a99190611add565b610601565b005b6101ca60048036038101906101c59190611add565b610661565b005b6101e660048036038101906101e191906119e8565b610681565b6040516101f39190611a56565b60405180910390f35b61021660048036038101906102119190611b30565b610732565b6040516102239190611b6c565b60405180910390f35b6102346107e9565b6040516102419190611990565b60405180910390f35b610264600480360381019061025f9190611bb3565b61087b565b005b61026e610891565b60405161027b9190611b6c565b60405180910390f35b61029e60048036038101906102999190611d28565b61089d565b005b6102ba60048036038101906102b591906119e8565b6108ff565b6040516102c79190611990565b60405180910390f35b6102ea60048036038101906102e59190611e4c565b610a11565b6040516102f79190611b6c565b60405180910390f35b61031a60048036038101906103159190611ea8565b610a48565b60405161032791906118dc565b60405180910390f35b60007f80ac58cd000000000000000000000000000000000000000000000000000000007bffffffffffffffffffffffffffffffffffffffffffffffffffffffff1916827bffffffffffffffffffffffffffffffffffffffffffffffffffffffff191614806103fb57507f5b5e139f000000000000000000000000000000000000000000000000000000007bffffffffffffffffffffffffffffffffffffffffffffffffffffffff1916827bffffffffffffffffffffffffffffffffffffffffffffffffffffffff1916145b8061040b575061040a82610adc565b5b9050919050565b60606000805461042190611f17565b80601f016020809104026020016040519081016040528092919081815260200182805461044d90611f17565b801561049a5780601f1061046f5761010080835404028352916020019161049a565b820191906000526020600020905b81548152906001019060200180831161047d57829003601f168201915b5050505050905090565b60006104af82610b46565b6004600083815260200190815260200160002060009054906101000a900473ffffffffffffffffffffffffffffffffffffffff169050919050565b60006104f582610681565b90508073ffffffffffffffffffffffffffffffffffffffff168373ffffffffffffffffffffffffffffffffffffffff1603610565576040517f08c379a000000000000000000000000000000000000000000000000000000000815260040161055c90611fba565b60405180910390fd5b8073ffffffffffffffffffffffffffffffffffffffff16610584610b91565b73ffffffffffffffffffffffffffffffffffffffff1614806105b357506105b2816105ad610b91565b610a48565b5b6105f2576040517f08c379a00000000000000000000000000000000000000000000000000000000081526004016105e99061204c565b60405180910390fd5b6105fc8383610b99565b505050565b61061261060c610b91565b82610c52565b610651576040517f08c379a0000000000000000000000000000000000000000000000000000000008152600401610648906120de565b60405180910390fd5b61065c838383610ce7565b505050565b61067c8383836040518060200160405280600081525061089d565b505050565b6000806002600084815260200190815260200160002060009054906101000a900473ffffffffffffffffffffffffffffffffffffffff169050600073ffffffffffffffffffffffffffffffffffffffff168173ffffffffffffffffffffffffffffffffffffffff1603610729576040517f08c379a00000000000000000000000000000000000000000000000000000000081526004016107209061214a565b60405180910390fd5b80915050919050565b60008073ffffffffffffffffffffffffffffffffffffffff168273ffffffffffffffffffffffffffffffffffffffff16036107a2576040517f08c379a0000000000000000000000000000000000000000000000000000000008152600401610799906121dc565b60405180910390fd5b600360008373ffffffffffffffffffffffffffffffffffffffff1673ffffffffffffffffffffffffffffffffffffffff168152602001908152602001600020549050919050565b6060600180546107f890611f17565b80601f016020809104026020016040519081016040528092919081815260200182805461082490611f17565b80156108715780601f1061084657610100808354040283529160200191610871565b820191906000526020600020905b81548152906001019060200180831161085457829003601f168201915b5050505050905090565b61088d610886610b91565b8383610f4d565b5050565b60078060000154905081565b6108ae6108a8610b91565b83610c52565b6108ed576040517f08c379a00000000000000000000000000000000000000000000000000000000081526004016108e4906120de565b60405180910390fd5b6108f9848484846110b9565b50505050565b606061090a82610b46565b600060066000848152602001908152602001600020805461092a90611f17565b80601f016020809104026020016040519081016040528092919081815260200182805461095690611f17565b80156109a35780601f10610978576101008083540402835291602001916109a3565b820191906000526020600020905b81548152906001019060200180831161098657829003601f168201915b5050505050905060006109b4611115565b905060008151036109c9578192505050610a0c565b6000825111156109fe5780826040516020016109e6929190612238565b60405160208183030381529060405292505050610a0c565b610a078461112c565b925050505b919050565b600080610a1e6007611194565b9050610a2a84826111a2565b610a34818461137b565b610a3e60076113ef565b8091505092915050565b6000600560008473ffffffffffffffffffffffffffffffffffffffff1673ffffffffffffffffffffffffffffffffffffffff16815260200190815260200160002060008373ffffffffffffffffffffffffffffffffffffffff1673ffffffffffffffffffffffffffffffffffffffff16815260200190815260200160002060009054906101000a900460ff16905092915050565b60007f01ffc9a7000000000000000000000000000000000000000000000000000000007bffffffffffffffffffffffffffffffffffffffffffffffffffffffff1916827bffffffffffffffffffffffffffffffffffffffffffffffffffffffff1916149050919050565b610b4f81611405565b610b8e576040517f08c379a0000000000000000000000000000000000000000000000000000000008152600401610b859061214a565b60405180910390fd5b50565b600033905090565b816004600083815260200190815260200160002060006101000a81548173ffffffffffffffffffffffffffffffffffffffff021916908373ffffffffffffffffffffffffffffffffffffffff160217905550808273ffffffffffffffffffffffffffffffffffffffff16610c0c83610681565b73ffffffffffffffffffffffffffffffffffffffff167f8c5be1e5ebec7d5bd14f71427d1e84f3dd0314c0f7b2291e5b200ac8c7c3b92560405160405180910390a45050565b600080610c5e83610681565b90508073ffffffffffffffffffffffffffffffffffffffff168473ffffffffffffffffffffffffffffffffffffffff161480610ca05750610c9f8185610a48565b5b80610cde57508373ffffffffffffffffffffffffffffffffffffffff16610cc6846104a4565b73ffffffffffffffffffffffffffffffffffffffff16145b91505092915050565b8273ffffffffffffffffffffffffffffffffffffffff16610d0782610681565b73ffffffffffffffffffffffffffffffffffffffff1614610d5d576040517f08c379a0000000000000000000000000000000000000000000000000000000008152600401610d54906122ce565b60405180910390fd5b600073ffffffffffffffffffffffffffffffffffffffff168273ffffffffffffffffffffffffffffffffffffffff1603610dcc576040517f08c379a0000000000000000000000000000000000000000000000000000000008152600401610dc390612360565b60405180910390fd5b610dd7838383611471565b610de2600082610b99565b6001600360008573ffffffffffffffffffffffffffffffffffffffff1673ffffffffffffffffffffffffffffffffffffffff1681526020019081526020016000206000828254610e3291906123af565b925050819055506001600360008473ffffffffffffffffffffffffffffffffffffffff1673ffffffffffffffffffffffffffffffffffffffff1681526020019081526020016000206000828254610e8991906123e3565b92505081905550816002600083815260200190815260200160002060006101000a81548173ffffffffffffffffffffffffffffffffffffffff021916908373ffffffffffffffffffffffffffffffffffffffff160217905550808273ffffffffffffffffffffffffffffffffffffffff168473ffffffffffffffffffffffffffffffffffffffff167fddf252ad1be2c89b69c2b068fc378daa952ba7f163c4a11628f55a4df523b3ef60405160405180910390a4610f48838383611476565b505050565b8173ffffffffffffffffffffffffffffffffffffffff168373ffffffffffffffffffffffffffffffffffffffff1603610fbb576040517f08c379a0000000000000000000000000000000000000000000000000000000008152600401610fb290612485565b60405180910390fd5b80600560008573ffffffffffffffffffffffffffffffffffffffff1673ffffffffffffffffffffffffffffffffffffffff16815260200190815260200160002060008473ffffffffffffffffffffffffffffffffffffffff1673ffffffffffffffffffffffffffffffffffffffff16815260200190815260200160002060006101000a81548160ff0219169083151502179055508173ffffffffffffffffffffffffffffffffffffffff168373ffffffffffffffffffffffffffffffffffffffff167f17307eab39ab6107e8899845ad3d59bd9653f200f220920489ca2b5937696c31836040516110ac91906118dc565b60405180910390a3505050565b6110c4848484610ce7565b6110d08484848461147b565b61110f576040517f08c379a000000000000000000000000000000000000000000000000000000000815260040161110690612517565b60405180910390fd5b50505050565b606060405180602001604052806000815250905090565b606061113782610b46565b6000611141611115565b90506000815111611161576040518060200160405280600081525061118c565b8061116b84611602565b60405160200161117c929190612238565b6040516020818303038152906040525b915050919050565b600081600001549050919050565b600073ffffffffffffffffffffffffffffffffffffffff168273ffffffffffffffffffffffffffffffffffffffff1603611211576040517f08c379a000000000000000000000000000000000000000000000000000000000815260040161120890612583565b60405180910390fd5b61121a81611405565b1561125a576040517f08c379a0000000000000000000000000000000000000000000000000000000008152600401611251906125ef565b60405180910390fd5b61126660008383611471565b6001600360008473ffffffffffffffffffffffffffffffffffffffff1673ffffffffffffffffffffffffffffffffffffffff16815260200190815260200160002060008282546112b691906123e3565b92505081905550816002600083815260200190815260200160002060006101000a81548173ffffffffffffffffffffffffffffffffffffffff021916908373ffffffffffffffffffffffffffffffffffffffff160217905550808273ffffffffffffffffffffffffffffffffffffffff16600073ffffffffffffffffffffffffffffffffffffffff167fddf252ad1be2c89b69c2b068fc378daa952ba7f163c4a11628f55a4df523b3ef60405160405180910390a461137760008383611476565b5050565b61138482611405565b6113c3576040517f08c379a00000000000000000000000000000000000000000000000000000000081526004016113ba90612681565b60405180910390fd5b806006600084815260200190815260200160002090805190602001906113ea929190611785565b505050565b6001816000016000828254019250508190555050565b60008073ffffffffffffffffffffffffffffffffffffffff166002600084815260200190815260200160002060009054906101000a900473ffffffffffffffffffffffffffffffffffffffff1673ffffffffffffffffffffffffffffffffffffffff1614159050919050565b505050565b505050565b600061149c8473ffffffffffffffffffffffffffffffffffffffff16611762565b156115f5578373ffffffffffffffffffffffffffffffffffffffff1663150b7a026114c5610b91565b8786866040518563ffffffff1660e01b81526004016114e794939291906126f6565b6020604051808303816000875af192505050801561152357506040513d601f19601f820116820180604052508101906115209190612757565b60015b6115a5573d8060008114611553576040519150601f19603f3d011682016040523d82523d6000602084013e611558565b606091505b50600081510361159d576040517f08c379a000000000000000000000000000000000000000000000000000000000815260040161159490612517565b60405180910390fd5b805181602001fd5b63150b7a0260e01b7bffffffffffffffffffffffffffffffffffffffffffffffffffffffff1916817bffffffffffffffffffffffffffffffffffffffffffffffffffffffff1916149150506115fa565b600190505b949350505050565b606060008203611649576040518060400160405280600181526020017f3000000000000000000000000000000000000000000000000000000000000000815250905061175d565b600082905060005b6000821461167b57808061166490612784565b915050600a8261167491906127fb565b9150611651565b60008167ffffffffffffffff81111561169757611696611bfd565b5b6040519080825280601f01601f1916602001820160405280156116c95781602001600182028036833780820191505090505b5090505b60008514611756576001826116e291906123af565b9150600a856116f1919061282c565b60306116fd91906123e3565b60f81b8183815181106117135761171261285d565b5b60200101907effffffffffffffffffffffffffffffffffffffffffffffffffffffffffffff1916908160001a905350600a8561174f91906127fb565b94506116cd565b8093505050505b919050565b6000808273ffffffffffffffffffffffffffffffffffffffff163b119050919050565b82805461179190611f17565b90600052602060002090601f0160209004810192826117b357600085556117fa565b82601f106117cc57805160ff19168380011785556117fa565b828001600101855582156117fa579182015b828111156117f95782518255916020019190600101906117de565b5b509050611807919061180b565b5090565b5b8082111561182457600081600090555060010161180c565b5090565b6000604051905090565b600080fd5b600080fd5b60007fffffffff0000000000000000000000000000000000000000000000000000000082169050919050565b6118718161183c565b811461187c57600080fd5b50565b60008135905061188e81611868565b92915050565b6000602082840312156118aa576118a9611832565b5b60006118b88482850161187f565b91505092915050565b60008115159050919050565b6118d6816118c1565b82525050565b60006020820190506118f160008301846118cd565b92915050565b600081519050919050565b600082825260208201905092915050565b60005b83811015611931578082015181840152602081019050611916565b83811115611940576000848401525b50505050565b6000601f19601f8301169050919050565b6000611962826118f7565b61196c8185611902565b935061197c818560208601611913565b61198581611946565b840191505092915050565b600060208201905081810360008301526119aa8184611957565b905092915050565b6000819050919050565b6119c5816119b2565b81146119d057600080fd5b50565b6000813590506119e2816119bc565b92915050565b6000602082840312156119fe576119fd611832565b5b6000611a0c848285016119d3565b91505092915050565b600073ffffffffffffffffffffffffffffffffffffffff82169050919050565b6000611a4082611a15565b9050919050565b611a5081611a35565b82525050565b6000602082019050611a6b6000830184611a47565b92915050565b611a7a81611a35565b8114611a8557600080fd5b50565b600081359050611a9781611a71565b92915050565b60008060408385031215611ab457611ab3611832565b5b6000611ac285828601611a88565b9250506020611ad3858286016119d3565b9150509250929050565b600080600060608486031215611af657611af5611832565b5b6000611b0486828701611a88565b9350506020611b1586828701611a88565b9250506040611b26868287016119d3565b9150509250925092565b600060208284031215611b4657611b45611832565b5b6000611b5484828501611a88565b91505092915050565b611b66816119b2565b82525050565b6000602082019050611b816000830184611b5d565b92915050565b611b90816118c1565b8114611b9b57600080fd5b50565b600081359050611bad81611b87565b92915050565b60008060408385031215611bca57611bc9611832565b5b6000611bd885828601611a88565b9250506020611be985828601611b9e565b9150509250929050565b600080fd5b600080fd5b7f4e487b7100000000000000000000000000000000000000000000000000000000600052604160045260246000fd5b611c3582611946565b810181811067ffffffffffffffff82111715611c5457611c53611bfd565b5b80604052505050565b6000611c67611828565b9050611c738282611c2c565b919050565b600067ffffffffffffffff821115611c9357611c92611bfd565b5b611c9c82611946565b9050602081019050919050565b82818337600083830152505050565b6000611ccb611cc684611c78565b611c5d565b905082815260208101848484011115611ce757611ce6611bf8565b5b611cf2848285611ca9565b509392505050565b600082601f830112611d0f57611d0e611bf3565b5b8135611d1f848260208601611cb8565b91505092915050565b60008060008060808587031215611d4257611d41611832565b5b6000611d5087828801611a88565b9450506020611d6187828801611a88565b9350506040611d72878288016119d3565b925050606085013567ffffffffffffffff811115611d9357611d92611837565b5b611d9f87828801611cfa565b91505092959194509250565b600067ffffffffffffffff821115611dc657611dc5611bfd565b5b611dcf82611946565b9050602081019050919050565b6000611def611dea84611dab565b611c5d565b905082815260208101848484011115611e0b57611e0a611bf8565b5b611e16848285611ca9565b509392505050565b600082601f830112611e3357611e32611bf3565b5b8135611e43848260208601611ddc565b91505092915050565b60008060408385031215611e6357611e62611832565b5b6000611e7185828601611a88565b925050602083013567ffffffffffffffff811115611e9257611e91611837565b5b611e9e85828601611e1e565b9150509250929050565b60008060408385031215611ebf57611ebe611832565b5b6000611ecd85828601611a88565b9250506020611ede85828601611a88565b9150509250929050565b7f4e487b7100000000000000000000000000000000000000000000000000000000600052602260045260246000fd5b60006002820490506001821680611f2f57607f821691505b602082108103611f4257611f41611ee8565b5b50919050565b7f4552433732313a20617070726f76616c20746f2063757272656e74206f776e6560008201527f7200000000000000000000000000000000000000000000000000000000000000602082015250565b6000611fa4602183611902565b9150611faf82611f48565b604082019050919050565b60006020820190508181036000830152611fd381611f97565b9050919050565b7f4552433732313a20617070726f76652063616c6c6572206973206e6f7420746f60008201527f6b656e206f776e6572206e6f7220617070726f76656420666f7220616c6c0000602082015250565b6000612036603e83611902565b915061204182611fda565b604082019050919050565b6000602082019050818103600083015261206581612029565b9050919050565b7f4552433732313a2063616c6c6572206973206e6f7420746f6b656e206f776e6560008201527f72206e6f7220617070726f766564000000000000000000000000000000000000602082015250565b60006120c8602e83611902565b91506120d38261206c565b604082019050919050565b600060208201905081810360008301526120f7816120bb565b9050919050565b7f4552433732313a20696e76616c696420746f6b656e2049440000000000000000600082015250565b6000612134601883611902565b915061213f826120fe565b602082019050919050565b6000602082019050818103600083015261216381612127565b9050919050565b7f4552433732313a2061646472657373207a65726f206973206e6f74206120766160008201527f6c6964206f776e65720000000000000000000000000000000000000000000000602082015250565b60006121c6602983611902565b91506121d18261216a565b604082019050919050565b600060208201905081810360008301526121f5816121b9565b9050919050565b600081905092915050565b6000612212826118f7565b61221c81856121fc565b935061222c818560208601611913565b80840191505092915050565b60006122448285612207565b91506122508284612207565b91508190509392505050565b7f4552433732313a207472616e736665722066726f6d20696e636f72726563742060008201527f6f776e6572000000000000000000000000000000000000000000000000000000602082015250565b60006122b8602583611902565b91506122c38261225c565b604082019050919050565b600060208201905081810360008301526122e7816122ab565b9050919050565b7f4552433732313a207472616e7366657220746f20746865207a65726f2061646460008201527f7265737300000000000000000000000000000000000000000000000000000000602082015250565b600061234a602483611902565b9150612355826122ee565b604082019050919050565b600060208201905081810360008301526123798161233d565b9050919050565b7f4e487b7100000000000000000000000000000000000000000000000000000000600052601160045260246000fd5b60006123ba826119b2565b91506123c5836119b2565b9250828210156123d8576123d7612380565b5b828203905092915050565b60006123ee826119b2565b91506123f9836119b2565b9250827fffffffffffffffffffffffffffffffffffffffffffffffffffffffffffffffff0382111561242e5761242d612380565b5b828201905092915050565b7f4552433732313a20617070726f766520746f2063616c6c657200000000000000600082015250565b600061246f601983611902565b915061247a82612439565b602082019050919050565b6000602082019050818103600083015261249e81612462565b9050919050565b7f4552433732313a207472616e7366657220746f206e6f6e20455243373231526560008201527f63656976657220696d706c656d656e7465720000000000000000000000000000602082015250565b6000612501603283611902565b915061250c826124a5565b604082019050919050565b60006020820190508181036000830152612530816124f4565b9050919050565b7f4552433732313a206d696e7420746f20746865207a65726f2061646472657373600082015250565b600061256d602083611902565b915061257882612537565b602082019050919050565b6000602082019050818103600083015261259c81612560565b9050919050565b7f4552433732313a20746f6b656e20616c7265616479206d696e74656400000000600082015250565b60006125d9601c83611902565b91506125e4826125a3565b602082019050919050565b60006020820190508181036000830152612608816125cc565b9050919050565b7f45524337323155524953746f726167653a2055524920736574206f66206e6f6e60008201527f6578697374656e7420746f6b656e000000000000000000000000000000000000602082015250565b600061266b602e83611902565b91506126768261260f565b604082019050919050565b6000602082019050818103600083015261269a8161265e565b9050919050565b600081519050919050565b600082825260208201905092915050565b60006126c8826126a1565b6126d281856126ac565b93506126e2818560208601611913565b6126eb81611946565b840191505092915050565b600060808201905061270b6000830187611a47565b6127186020830186611a47565b6127256040830185611b5d565b818103606083015261273781846126bd565b905095945050505050565b60008151905061275181611868565b92915050565b60006020828403121561276d5761276c611832565b5b600061277b84828501612742565b91505092915050565b600061278f826119b2565b91507fffffffffffffffffffffffffffffffffffffffffffffffffffffffffffffffff82036127c1576127c0612380565b5b600182019050919050565b7f4e487b7100000000000000000000000000000000000000000000000000000000600052601260045260246000fd5b6000612806826119b2565b9150612811836119b2565b925082612821576128206127cc565b5b828204905092915050565b6000612837826119b2565b9150612842836119b2565b925082612852576128516127cc565b5b828206905092915050565b7f4e487b7100000000000000000000000000000000000000000000000000000000600052603260045260246000fdfea2646970667358221220ef0ee875941d05363316aa87bfb560980ea3c9625efbe33cc50bb64c654fcf0364736f6c634300080d0033",
  "immutableReferences": {},
  "source": "// SPDX-License-Identifier: MIT\npragma solidity >=0.4.22 <0.9.0;\n\nimport \"@openzeppelin/contracts/token/ERC721/extensions/ERC721URIStorage.sol\";\nimport \"@openzeppelin/contracts/utils/Counters.sol\";\n\ncontract MemoryToken is ERC721URIStorage { \n  using Counters for Counters.Counter;\n  Counters.Counter public _tokenIds;\n\n  constructor() ERC721(\"Memory Token\", \"DACETHER\")  {}\n\n  function awardItem(address player, string memory tokenURI) public returns (uint256) {\n    uint256 newItemId = _tokenIds.current();\n    _mint(player, newItemId);\n    _setTokenURI(newItemId, tokenURI);\n\n    _tokenIds.increment();\n    return newItemId;\n  }\n}\n",
  "sourcePath": "/Users/danielancuta/Development/blockchain/truffle-react-memory-game-app/src/contracts/MemoryToken.sol",
  "compiler": {
    "name": "solc",
    "version": "0.8.13+commit.abaa5c0e.Emscripten.clang"
  },
  "schemaVersion": "3.4.10",
  "updatedAt": "2022-09-29T14:13:14.935Z",
  "networkType": "ethereum",
  "devdoc": {
    "kind": "dev",
    "methods": {
      "approve(address,uint256)": {
        "details": "See {IERC721-approve}."
      },
      "balanceOf(address)": {
        "details": "See {IERC721-balanceOf}."
      },
      "getApproved(uint256)": {
        "details": "See {IERC721-getApproved}."
      },
      "isApprovedForAll(address,address)": {
        "details": "See {IERC721-isApprovedForAll}."
      },
      "name()": {
        "details": "See {IERC721Metadata-name}."
      },
      "ownerOf(uint256)": {
        "details": "See {IERC721-ownerOf}."
      },
      "safeTransferFrom(address,address,uint256)": {
        "details": "See {IERC721-safeTransferFrom}."
      },
      "safeTransferFrom(address,address,uint256,bytes)": {
        "details": "See {IERC721-safeTransferFrom}."
      },
      "setApprovalForAll(address,bool)": {
        "details": "See {IERC721-setApprovalForAll}."
      },
      "supportsInterface(bytes4)": {
        "details": "See {IERC165-supportsInterface}."
      },
      "symbol()": {
        "details": "See {IERC721Metadata-symbol}."
      },
      "tokenURI(uint256)": {
        "details": "See {IERC721Metadata-tokenURI}."
      },
      "transferFrom(address,address,uint256)": {
        "details": "See {IERC721-transferFrom}."
      }
    },
    "version": 1
  },
  "userdoc": {
    "kind": "user",
    "methods": {},
    "version": 1
  }
}